:020000040800F2
:10000000008001201D0200086D0200086D0200083A
:100010006D0200086D0200086D020008000000007B
:100020000000000000000000000000006D02000859
:100030006D020008000000006D0200086D0200085B
:10004000000000006D0200086D0200086D0200084B
:100050006D0200086D0200086D0200086D020008C4
:100060006D0200086D0200086D0200086D020008B4
:100070006D0200086D0200086D0200086D020008A4
:100080006D0200086D0200086D020008000000000B
:100090000000000000000000000000006D020008E9
:1000A0006D0200086D0200086D0200086D02000874
:1000B0006D0200086D0200086D0200086D02000864
:1000C0006D0200086D0200086D0200086D02000854
:1000D0006D0200086D0200086D02000800000000BB
:1000E0006D0200086D0200086D02000800000000AB
:1000F0000000000000000000000000006D02000889
:10010000000000006D0200086D0200086D0200088A
:1001100000000000000000000000000000000000DF
:100120006D0200086D0200086D0200086D020008F3
:100130006D02000800000000000000000000000048
:100140000000000000000000000000006D02000838
:100150006D0200086D0200086D0200086D020008C3
:100160006D0200086D0200080000000000000000A1
:10017000000000000000000000000000000000007F
:10018000000000000000000000000000000000006F
:040190006D020008F4
:1001940010B5054C237833B9044B13B10448AFF3BD
:1001A40000800123237010BD000000200000000027
:1001B400B802000808B5034B1BB103490348AFF369
:1001C400008008BD0000000004000020B802000800
:1001D40080B485B000AF0D4BFB600D4BBB600D4B85
:1001E4007B60FB681B6843F00102FB681A60BB6814
:1001F4001B6843F0406343F48063BA6813607B6810
:100204001B6843F010027B681A60FEE73038024036
:1002140000000240140002400D488546AFF3008000
:100224000C480D490D4A002302E0D458C45004334D
:10023400C4188C42F9D30A4A0A4C002301E0136023
:100244000432A242FBD300F011F8FFF7C1FFFEE72E
:10025400008001200000002000000020D8020008D7
:10026400000000201C000020FEE7000070B50D4DCA
:100274000D4C641BA4100026A64209D10B4D0C4C56
:1002840000F018F8641BA4100026A64205D170BD26
:1002940055F8043B98470136EEE755F8043B984778
:1002A4000136F2E7D0020008D0020008D0020008AC
:1002B400D4020008F8B500BFF8BC08BC9E467047DD
:0C02C400F8B500BFF8BC08BC9E467047AF
:0402D000B901000868
:0402D4009501000888
:040000050800021DD0
:00000001FF
